:1004DF00736F6E677A6972756936363600303132EE
:1004EF00333435363738392E2D4D44697374616E78
:1004FF0063653A3030302E30636D00212121204F5B
:10050F007574206F662072616E676500CAD5B5BDC0
:10051F00D6B8C1EEA3ACCFF2C7B0210A00CAD5B589
:10052F00BDD6B8C1EEA3ACCFF2BAF3210A00CAD53B
:10053F00B5BDD6B8C1EEA3ACCFF2D7F3210A00CA2E
:10054F00D5B5BDD6B8C1EEA3ACCFF2D3D2210A0038
:10055F00CAD5B5BDD6B8C1EEA3ACCDA3D6B9210AC5
:01056F00008B
:1006D700010800011D00011E00011C00C181C18429
:1006E700020E0000041700000000041300000000C1
:1006F700C100C103C10202100000011B000112006A
:0707070005090000000000DD
:100760008F2912073A852980D2907F01120012C288
:10077000917F0112001212000E12000ED2A57F010D
:0307800002001262
:04070F007D017C00EC
:100713008F29ED4C600312073A852980C2907F012F
:10072300120012C2917F0112001212000E12000E6B
:07073300D2A57F01020012B4
:10073A007580FFC2907F01120012D2917F011200D0
:10074A001212000E12000ED2A57F01120012E580CD
:06075A0020E7EEAF802253
:10068F00E4F580FDFC7F38120713120828E4FDFC07
:10069F007F38120713120828E4FDFC7F3812071366
:1006AF001208287F3812070F7F0812070F7D017C71
:1006BF00007F011207137D017C007F061207137D57
:0806CF00017C007F0C020713FF
:0707E8009004EC93FB7D017E
:1007EF008B2853050153070FED6003430740430761
:0907FF008012070FAF2802076009
:080646007A047BF97D01E4FF59
:08064E008F238D248A258B26E1
:10065600E4F52753240153230FE5262527F582E4E5
:100666003525F583E493FBD3941974809480401860
:10067600D3E523940F7480948050DEAD24AF23120B
:0806860007EF0527052380D1D1
:01068E002249
:040828007F057E00CA
:10082C007D0A7C3200DCFDDDF9EF1F70011E144ED9
:02083C0070EE5C
:01083E002297
:04000E00C2A57F0107
:070012007E0A00DEFDDFF9AC
:0100190022C4
:10080800E4FDFCC3ED9FEC9E5015E4FBFA0BBB0026
:0F081800010ABA07F8BBD0F50DBD00010C80E452
:0108270022AE
:0F08A300751D08751C08C292D293D296C2972277
:0F08B200751D08751C08D292C293C296D2972268
:0F08C100751D0F751C0FD296C297D292C293224B
:0F08D000751D0D751C0DC292D293C296D2972240
:0908F300C292C293C296C2972280
:1007830030041CE508D3951D5004D2958002C29510
:10079300C3E5089414748094804006E4F50822C2EB
:0207A30095229D
:1007A50030011CE51ED3951C5004D2948002C294DE
:1007B500C3E51E9414748094804006E4F51E22C29D
:0207C50094227C
:03000B000207C722
:1007C700C0E0C0D0758CFC758A18050FE50F700264
:1007D700050E0508051E1207831207A5D0D0D0E025
:0107E70032DF
:10083F00E4FFEF90051B93600AF5993099FDC2997B
:03084F000F80EF28
:010852002283
:10085300E4FFEF90052C93600AF5993099FDC29956
:030863000F80EF14
:01086600226F
:10086700E4FFEF90053D93600AF5993099FDC29931
:030877000F80EF00
:01087A00225B
:10087B00E4FFEF90054E93600AF5993099FDC2990C
:03088B000F80EFEC
:01088E002247
:10088F00E4FFEF90055F93600AF5993099FDC299E7
:03089F000F80EFD8
:0108A2002233
:030023000205FCD7
:1005FC00C0E0C0D075D000C000309837C298859943
:10060C0012E512B44F0FE51B700B7409251BF8A6ED
:10061C0012D202801E30021B051B7409251BF8A682
:10062C0012C3E51B9402748094804007751B00C2B2
:0A063C0002D203D000D0D0D0E0328B
:1002D800AF8DEFFEAD8B7C00E42DF50FEC3EF50EF7
:1002E800E4F58DF58B850F16850E15F514F513AF0E
:1002F80016AE15AD14AC1312012C7B7B7A14792E33
:10030800783E12002612016A8F168E158D148C13F2
:10031800E47F887E13FDFCAB16AA15A914A813C3A5
:100328001202C7400EC2A37F327E0012082CD2A34D
:10033800C20022E4FFFEFDFCAB16AA15A914A813FF
:10034800C31202C7700A7A057B0A7D01FF02064EB6
:10035800E47B0AFAF9F8AF16AE15AD14AC13120225
:1003680027AF038F17E47B0AFAF9F8AF16AE15AD7D
:1003780014AC13120227E47B0AFAF9F8120227AF29
:10038800038F18E47B64FAF9F8AF16AE15AD14AC18
:1003980013120227E47B0AFAF9F8120227AF038F37
:1003A80019E47BE87A03F9F8AF16AE15AD14AC136F
:1003B8001202278F1A120646E51A7F091207E8E586
:1003C800197F0A1207E8E5189004EC93FB7D017F7A
:1003D8000B1207EF9004F6E493FB7D017F0C1207E4
:1003E800EFE5179004EC93FB7D017F0D1207EF22D8
:03001B00020003DD
:0100030032CA
:0A08DF00D28E20A0FDC28E0202D8C6
:0A08E900D2A17F02120012C2A12268
:1003F8007F907E0112082C12068F1208287A047B3F
:10040800DFE4FDFF12064E120646758920758DFD44
:10041800758BFD759850E4F587D28ED2ACD2AFE5D6
:10042800116401451060030204B8C2A37F32FE12B2
:10043800082CD2A3758910D2AFE4F58DF58BD2AB19
:10044800758CFC758A18D28CD2A9F510751102E545
:100458001164024510705920B40620B3031208A392
:1004680020B63320B5301208F3D2A01208E975215E
:10047800037522B730A0031208DFE52215227002A7
:100488001521D3E5229400E521940050E77F647E8E
:100498000012080880B930B40920B3061208C11246
:1004A80008A330B3AA20B4A71208D01208A3809FCB
:1004B800E51164014510601E3003F5C203E509B477
:1004C8004FEEE50AB44EE9E50B24BF70E375100062
:0604D8007511010204276A
:0104DE0022FB
:10002600EC4D6011E8497017ED33EC3304600DE4D4
:10003600FCFFFEFD22E933E8330470F80201D61214
:1000460001A158046009E4CC248150062850090215
:1000560001E02840030201DDC0E0EB4A7044B980AC
:1000660006D0E0FB0201CCEF4E701CBD8008EBFF12
:10007600EAFEE9FD80EBE98DF0A4FEE5F002010F52
:10008600E9CDF9EAFEEBFFEF89F0A4FCE5F0CE89B5
:10009600F0A42EFFE435F0CD89F0A42DFEE435F072
:1000A6008067EF4E7005BD80D780C3EF8BF0A4ACA0
:1000B600F0EE8BF0A42CFCE435F0F8EF8AF0A42CDB
:1000C600E5F038FCE433CB8DF0A42CFCE5F03BF8EE
:1000D600EE8AF0A42CFCE5F038F8E433CF89F0A4DE
:1000E6002CFCE5F038CF3400CE89F0A42FFFE5F0E4
:1000F6003EFEE433C98DF0A42EFEE5F039CD8AF03C
:10010600A42FFFE5F03EFEE43DFD33D0E0FB5007B3
:100116000BBB000F0201E0EC2CFCEF33FFEE33FECD
:06012600ED33FD0201B8FB
:10012C0075F020800E75F010800575F0087D007E4E
:10013C00007F003392D530D5031202B9EC33401056
:10014C00EF33FFEE33FEED33FDEC33FCD5F0ED2257
:0E015C00E5F0247EA2D513CC92E7CDCEFF2293
:10016A00EDD2E7CD33EC3392D524814006E4FFFE8D
:10017A00FDFC22FCE4CFCECDCC24E0501174FF80EC
:10018A00EDC3CC13CCCD13CDCE13CECF13CF047089
:07019A00F030D5DE0202B9CE
:1001A100E9D2E7C933E833F892D5EDD2E7CD33ECA4
:0701B10033FC5002B2D5221D
:1001B800EC30E7100FBF000C0EBE00080DBD0004A8
:1001C8000BEB6014A2D5EB13FCED92E7FD2274FF54
:1001D800FCFDFEFF22E480F8A2D574FF13FC7D80AD
:0301E800E480EFC1
:0300000002057086
:0C057000787FE4F6D8FD7581290205B7FC
:1001EB0075F008758200EF2FFFEE33FECD33CDCCCB
:1001FB0033CCC58233C5829BED9AEC99E58298404E
:10020B000CF582EE9BFEED9AFDEC99FC0FD5F0D62A
:10021B00E4CEFBE4CDFAE4CCF9A88222B800C1B954
:10022B000059BA002DEC8BF084CFCECDFCE5F0CB92
:10023B00F97818EF2FFFEE33FEED33FDEC33FCEBCB
:10024B0033FB10D703994004EB99FB0FD8E5E4F986
:10025B00FA227818EF2FFFEE33FEED33FDEC33FC73
:10026B00C933C910D7059BE99A4007EC9BFCE99A67
:10027B00F90FD8E0E4C9FAE4CCFB2275F010EF2FAC
:10028B00FFEE33FEED33FDCC33CCC833C810D707AC
:10029B009BEC9AE899400AED9BFDEC9AFCE899F8E7
:0E02AB000FD5F0DAE4CDFBE4CCFAE4C8F9227A
:0E02B900C3E49FFFE49EFEE49DFDE49CFC2256
:1002C700EB9FF5F0EA9E42F0E99D42F0E89C45F08D
:0102D7002204
:10057C000203F8E493A3F8E493A34003F68001F29A
:10058C0008DFF48029E493A3F85407240CC8C33380
:10059C00C4540F4420C8834004F456800146F6DF4F
:1005AC00E4800B01020408102040809006D7E47E02
:1005BC00019360BCA3FF543F30E509541FFEE49344
:1005CC00A360010ECF54C025E060A840B8E493A30B
:1005DC00FAE493A3F8E493A3C8C582C8CAC583CA36
:1005EC00F0A3C8C582C8CAC583CADFE9DEE780BEEE
:01070E0000EA
:00000001FF
