:1005C300736F6E677A697275693636360030313209
:1005D300333435363738392E2D4D44697374616E93
:1005E30063653A3030302E30636D00212121204F76
:0C05F3007574206F662072616E676500F1
:10067300010800011400011500011300C181C182AA
:1006830002090000040F00000000040B000000003A
:02069300C100A4
:100650008F1E12062A851E80D2907F01120012C2C0
:10066000917F0112001212000E12000ED2A57F011E
:0306700002001273
:0405FF007D017C00FE
:100603008F1EED4C600312062A851E80C2907F0167
:10061300120012C2917F0112001212000E12000E7C
:07062300D2A57F01020012C5
:10062A007580FFC2907F01120012D2917F011200E1
:10063A001212000E12000ED2A57F01120012E580DE
:06064A0020E7EEAF802264
:10057B00E4F580FDFC7F3812060312073BE4FDFC1B
:10058B007F3812060312073BE4FDFC7F381206038B
:10059B0012073B7F381205FF7F081205FF7D017C98
:1005AB00007F011206037D017C007F061206037D8E
:0805BB00017C007F0C02060325
:0706FB009005D093FB7D0187
:100702008B1D53050153070FED6003430740430759
:09071200801205FFAF1D02065024
:080532007A057BDD7D01E4FF89
:08053A008F188D198A1A8B1B22
:10054200E4F51C53190153180FE51B251CF582E431
:10055200351AF583E493FBD3941974809480401880
:10056200D3E518940F7480948050DEAD19AF181241
:080572000702051C051880D1E9
:01057A00225E
:04073B007F057E00B8
:10073F007D0A7C3200DCFDDDF9EF1F70011E144EC7
:02074F0070EE4A
:010751002285
:04000E00C2A57F0107
:070012007E0A00DEFDDFF9AC
:0100190022C4
:10071B00E4FDFCC3ED9FEC9E5015E4FBFA0BBB0014
:0F072B00010ABA07F8BBD0F50DBD00010C80E440
:01073A00229C
:0F075200751408751308C292D293D296C29722DB
:0F076100751408751308D292C293C296D29722CC
:0F07700075140F75130FD296C297D292C29322AF
:0F077F0075140D75130DC292D293C296D29722A4
:0907A200C292C293C296C29722D2
:1006960030021CE508D395145004D2958002C29509
:1006A600C3E5089414748094804006E4F50822C2D9
:0206B60095228B
:1006B80030011CE515D395135004D2948002C294DE
:1006C800C3E5159414748094804006E4F51522C29D
:0206D80094226A
:03000B000206DA10
:1006DA00C0E0C0D0758CFC758A18050AE50A70025C
:1006EA000509050805151206961206B8D0D0D0E0FD
:0106FA0032CD
:1002D000AF8DEFFEAD8B7C00E42DF50AEC3EF50909
:1002E000E4F58DF58B850A0E85090DF50CF50BAF40
:1002F0000EAE0DAD0CAC0B1201247B7B7A14792E63
:10030000783E12001E1201628F0E8E0D8D0C8C0B2A
:10031000E47F887E13FDFCAB0EAA0DA90CA80BC3CD
:100320001202BF500330000DC2007A057BEE7D0142
:10033000E4FF02053AE47B0AFAF9F8AF0EAE0DAD20
:100340000CAC0B12021FAF038F0FE47B0AFAF9F813
:10035000AF0EAE0DAD0CAC0B12021FE47B0AFAF926
:10036000F812021FAF038F10E47B64FAF9F8AF0EA6
:10037000AE0DAD0CAC0B12021FE47B0AFAF9F812B9
:10038000021FAF038F11E47BE87A03F9F8AF0EAEDA
:100390000DAD0CAC0B12021F8F12120532E5127F4D
:1003A000091206FBE5117F0A1206FBE5109005D045
:1003B00093FB7D017F0B1207029005DAE493FB7D2E
:1003C000017F0C120702E50F9005D093FB7D017FA2
:0503D0000D12070222DE
:03001B00020003DD
:05000300D200C2A03292
:0A078E00D28E20A0FDC28E0202D020
:0A079800D2A17F02120012C2A122BA
:1003D5007F907E0112073F12057B12073B7A057B52
:1003E500C3E4FDFF12053A120532E4FBEBC3943278
:1003F50074809480500D7F017E0012073F20B7EA7C
:100405000B80E9C2A37F327E0012073FD2A3438946
:1004150010D2AFE4F58DF58BD2AB758CFC758A18CF
:10042500D28CD2A920B40620B30312075220B657A6
:1004350020B5541207A2D2A0120798751603751796
:10044500B730A00312078EE517151770021516D3DE
:10045500E5179400E516940050E77FE87E03120740
:100465001B7516037517B730A00312078EE5171510
:100475001770021516D3E5179400E516940050E79A
:100485007FE87E0302071B30B40920B3061207700C
:1004950012075230B38E20B48B12077F1207528099
:0104A50083D3
:10001E00EC4D6011E8497017ED33EC3304600DE4DC
:10002E00FCFFFEFD22E933E8330470F80201CE1224
:10003E00019958046009E4CC248150062850090225
:10004E0001D82840030201D5C0E0EB4A7044B980C4
:10005E0006D0E0FB0201C4EF4E701CBD8008EBFF22
:10006E00EAFEE9FD80EBE98DF0A4FEE5F002010762
:10007E00E9CDF9EAFEEBFFEF89F0A4FCE5F0CE89BD
:10008E00F0A42EFFE435F0CD89F0A42DFEE435F07A
:10009E008067EF4E7005BD80D780C3EF8BF0A4ACA8
:1000AE00F0EE8BF0A42CFCE435F0F8EF8AF0A42CE3
:1000BE00E5F038FCE433CB8DF0A42CFCE5F03BF8F6
:1000CE00EE8AF0A42CFCE5F038F8E433CF89F0A4E6
:1000DE002CFCE5F038CF3400CE89F0A42FFFE5F0EC
:1000EE003EFEE433C98DF0A42EFEE5F039CD8AF044
:1000FE00A42FFFE5F03EFEE43DFD33D0E0FB5007BC
:10010E000BBB000F0201D8EC2CFCEF33FFEE33FEDD
:06011E00ED33FD0201B00B
:1001240075F020800E75F010800575F0087D007E56
:10013400007F003392D530D5031202B1EC33401066
:10014400EF33FFEE33FEED33FDEC33FCD5F0ED225F
:0E015400E5F0247EA2D513CC92E7CDCEFF229B
:10016200EDD2E7CD33EC3392D524814006E4FFFE95
:10017200FDFC22FCE4CFCECDCC24E0501174FF80F4
:10018200EDC3CC13CCCD13CDCE13CECF13CF047091
:07019200F030D5DE0202B1DE
:10019900E9D2E7C933E833F892D5EDD2E7CD33ECAC
:0701A90033FC5002B2D52225
:1001B000EC30E7100FBF000C0EBE00080DBD0004B0
:1001C0000BEB6014A2D5EB13FCED92E7FD2274FF5C
:1001D000FCFDFEFF22E480F8A2D574FF13FC7D80B5
:0301E000E480EFC9
:030000000204A651
:0C04A600787FE4F6D8FD7581200204ED9B
:1001E30075F008758200EF2FFFEE33FECD33CDCCD3
:1001F30033CCC58233C5829BED9AEC99E582984056
:100203000CF582EE9BFEED9AFDEC99FC0FD5F0D632
:10021300E4CEFBE4CDFAE4CCF9A88222B800C1B95C
:100223000059BA002DEC8BF084CFCECDFCE5F0CB9A
:10023300F97818EF2FFFEE33FEED33FDEC33FCEBD3
:1002430033FB10D703994004EB99FB0FD8E5E4F98E
:10025300FA227818EF2FFFEE33FEED33FDEC33FC7B
:10026300C933C910D7059BE99A4007EC9BFCE99A6F
:10027300F90FD8E0E4C9FAE4CCFB2275F010EF2FB4
:10028300FFEE33FEED33FDCC33CCC833C810D707B4
:100293009BEC9AE899400AED9BFDEC9AFCE899F8EF
:0E02A3000FD5F0DAE4CDFBE4CCFAE4C8F92282
:0E02B100C3E49FFFE49EFEE49DFDE49CFC225E
:1002BF00EB9FF5F0EA9E42F0E99D42F0E89C45F095
:0102CF00220C
:1004B2000203D5E493A3F8E493A34003F68001F288
:1004C20008DFF48029E493A3F85407240CC8C3334B
:1004D200C4540F4420C8834004F456800146F6DF1A
:1004E200E4800B0102040810204080900673E47E31
:1004F200019360BCA3FF543F30E509541FFEE4930F
:10050200A360010ECF54C025E060A840B8E493A3D5
:10051200FAE493A3F8E493A3C8C582C8CAC583CA00
:10052200F0A3C8C582C8CAC583CADFE9DEE780BEB8
:010695000064
:00000001FF
